:020000040000FA
:060000008BEF02F012007C
:0A000600010034050000140400009E
:0400100001000000EB
:0C001400060EF66E000EF76E000EF86E81
:1000200004010900F550066F0900F550076F03E160
:10003000066701D03DD00900F550016F0900F55069
:10004000026F0900F550036F09000900F550E96ED1
:100050000900F550EA6E090009000900F550046F27
:100060000900F550056F09000900F6CF08F4F7CF35
:1000700009F4F8CF0AF401C4F6FF02C4F7FF03C481
:10008000F8FF0401045302E1055307E00900F550AD
:10009000EE6E0407F8E20507F9D708C4F6FF09C4B5
:1000A000F7FF0AC4F8FF04010607000E075BBFD77D
:0200B00012003C
:0E00B200D9CFE6FFE1CFD9FF0F0E83169516CA
:1000C0009594959295908C948C928C9042EC02F041
:1000D000300E33D8050EE66E4EEC02F0E552300ECF
:1000E0002CD8010EE66E4EEC02F0E552320E25D809
:1000F00029D8FEE127D8FEE1FE0EDBCFE6FF85EC36
:1001000001F0E5521FD8FEE1080E17D81BD8FEE11A
:100110000F0E13D817D8FEE1010E0FD813D8FEE149
:10012000040E0BD80FD8FEE1800EE66E1AEC01F03B
:10013000E552E552E7CFD9FF1200E66E85EC01F0FB
:0C014000E552120065EC02F0000912000C
:04014C00280EE66E25
:1001500059EC00F0E5520401146B080E145D0FE237
:10016000E3EC00F0E66E04011451EA6A0B0FE96E4D
:10017000040EEA22E552E750EF6E142BEED765EC41
:1001800002F00009FCE1400EE66E1AEC01F0E552C7
:10019000060EE66E85EC01F0E55265EC02F0000912
:1001A000FCE10E0EE66E85EC01F0E55265EC02F026
:1001B0000009FCE10B0EE66E040EE66E0EEC02F09A
:0601C000E552E552FFD7F5
:0A01C6000401F9EC00F0070E1465C7
:1001D000F0EF00F0ECEF00F0FF0E386EF8EF00F0FB
:1001E0001451300FE96EEA6AEF50386EF8EF00F004
:1001F0001200540E306E680E316E650E326E740E43
:10020000336E610E346E5F0E356E4D0E366E000E1F
:10021000376E1200000EF36E00EE00F0060E01D8ED
:100220001200EA6002D0EE6AFCD7F350E9601200D7
:04023000EE6AFCD79F
:0C023400D9CFE6FFE1CFD9FF0F0E9516E1
:100240008316FE0EDB508009F00B83128C948C9287
:100250000ED80F0E8316FE0EDB38F00BF00B831258
:1002600006D8F00E9512E552E7CFD9FF12002FEC19
:0C02700002F08C802FEC02F08C90120049
:04027C00D9CFE6FFF1
:10028000E1CFD9FF0F0E95168316FE0EDB50400905
:10029000F00B83128C948C920ED80F0E8316FE0EE8
:1002A000DB38F00BF00B831206D8F00E9512E552F6
:1002B000E7CFD9FF12002FEC02F08C802FEC02F078
:0402C0008C9012000C
:0C02C400D9CFE6FFE1CFD9FF0F0E951651
:1002D0008316FE0EDB50F00B83128C828C940ED8AA
:1002E0000F0E8316FE0EDB38F00BF00B831206D8D0
:1002F000F00E9512E552E7CFD9FF12002FEC02F075
:0A0300008C802FEC02F08C901200AC
:06030A00D9CFE6FFE1CFB0
:10031000D9FF0F0E95168316FE0EDB50F00B8312DD
:100320008C948C920ED80F0E8316FE0EDB38F00BD9
:10033000F00B831206D8F00E9512E552E7CFD9FFE5
:1003400012002FEC02F08C802FEC02F08C90120047
:10035000D9CFE6FFE1CFD9FFE6528C848C822FEC17
:1003600002F08C802FEC02F0F00E8314DF6E8C9084
:100370002FEC02F08C802FEC02F083380F0B0F0B68
:10038000DF128C908C928C94DF50E552E552E7CFCF
:04039000D9FF12007F
:0C039400D9CFE6FFE1CFD9FFE6528C8400
:1003A0008C922FEC02F08C802FEC02F0F00E831474
:1003B000DF6E8C902FEC02F08C802FEC02F08338F3
:1003C0000F0B0F0BDF128C908C947F0EDF14E55215
:0803D000E552E7CFD9FF12004E
:0803D800D9CFE6FFE1CFD9FF08
:1003E00014D80FE065EC02F00009FCE10ED8E66ECF
:1003F00062EC01F0E552FD0EDB2AFE0EF1E3DB2A92
:10040000EFD7E552E7CFD9FF1200FD0EDBCFF6FFA5
:0C041000FE0EDBCFF7FF0800F5501200D5
:04041C00D9CFE6FF4F
:10042000E1CFD9FF14D80FE065EC02F00009FCE140
:100430000ED8E66E62EC01F0E552FD0EDB2AFE0EF0
:10044000F1E3DB2AEFD7E552E7CFD9FF1200FD0E2B
:0E045000DBCFE9FFFE0EDBCFEAFFEF5012001C
:02045E0000009C
:10046000000000000000000000000000000000008C
:10047000000000000000000000000000000000007C
:10048000000012000F0EE66E7BEC02F0E552120047
:0C049000050EE66E7BEC02F0E552120057
:04049C00FF0EE3501C
:1004A000036EEF0E01D0F30EE76EE72E55EF02F06C
:1004B0000C0E026EE76AE72E5BEF02F0022E5AEF97
:0A04C00002F0032E53EF02F01200C9
:0604CA008C848C922FECE3
:1004D00002F08C802FEC02F083AE02D003D8010C26
:1004E00001D8000C8C902FEC02F08C802FEC02F0E5
:0604F0008C908C941200B8
:0A04F600FF0EE350036E480E01D024
:100500004C0EE76EE72EFED7E76AE72EFED7032EE6
:06051000F7D70000120005
:0A05160013EE81F023EE81F0F86A85
:10052000019C0AEC00F099EC02F0A6EC00F0FBD77D
:020530001200B7
:020532001200B5
:0105340000C6
:020000040030CA
:0100010022DC
:010003000EEE
:010006008178
:00000001FF
